:020000040800F2
:10000000200B0020C5000008DD2200081F2000088A
:1000100000000000000000000000000000000000E0
:10002000000000000000000000000000D5250008CE
:1000300000000000000000009D240008EB260008DE
:10004000D700000800000000FD240008D7000008C9
:10005000D7000008D7000008D7000008D700000824
:1000600000000000D7000008210B0008D70000089E
:10007000D7000008D7000008D700000800000000E3
:10008000D70000080000000000000000D7000008B2
:1000900000000000D7000008D7000008D7000008C3
:1000A00000000000D700000800000000392B000805
:1000B0000348854600F04CFA0048004749310008E3
:1000C000200B00200448804704480047FEE7FEE775
:1000D000FEE7FEE7FEE7FEE755270008B10000084F
:1000E00030B50B46014600202022012409E00D46D0
:1000F000D5409D4205D31D469540491B2546954058
:1001000040191546521E002DF1DC30BDF0B51FB46C
:100110000646002082B005464024019100901BE075
:10012000019922460F46304600F020F8049A059BBC
:10013000801A994110D310461946224600F0B1F9B1
:10014000361A8F410197224601200021009F00F0BE
:10015000A8F938184D4100902046641E0028DFDCC5
:10016000019B00982946324607B0F0BD10B5202A01
:1001700004DB0846203AD040002110BD0B46D34096
:10018000D0402024A21A91400843194610BD0346CE
:100190000B439B0703D009E008C9121F08C0042ABB
:1001A000FAD203E00B780370401C491C521EF9D2AE
:1001B0007047D2B201E00270401C491EFBD270476A
:1001C0000022F6E710B513460A4604461946FFF723
:1001D000F0FF204610BD30B505462A460B46107884
:1001E0001C78521C5B1C002801D0A042F7D0002CC8
:1001F00003D0002802D06D1CEFE7284630BDCAB2FC
:10020000401E4178401C8A4202D00029F9D10020CA
:100210007047421C0178401C0029FBD1801A7047AE
:100220000321001D401E037812021A43491EF9D50E
:10023000104670470FB400B58DB009900B9010A90F
:1002400000200091C0430A9000200C9006480690C0
:10025000064807906A4609A80F9900F047F90DB0C3
:1002600008BC04B0184700000D0500082D05000863
:10027000FFB50027FF4383B000205C6801909E68B3
:100280001D46A9697F1C049888470090296A884701
:100290000028F6D10098401C0CD003204002844373
:1002A000002E19DD600614D500982B2809D02D28C2
:1002B0000FD103E00020C04307B0F0BD0120800251
:1002C0000443A9697F1C04988847761E0090002E7D
:1002D00002DD0098302803D00598002825D035E0AD
:1002E000012040020443A969761E7F1C04988847B8
:1002F0000090002E03DD782805D0582803D00598FB
:10030000002810D022E00598002801D010281DD127
:10031000012040028443A969761E7F1C0498884707
:100320000090102002E0082000E00A2005900DE077
:10033000012149020C43059A0199761E5143081880
:100340000190A9697F1C049888470090002E05DD64
:100350000599009800F0B5F80028E9DAE9690498F1
:100360008847A00502D40120C043A5E7E00722D1B9
:10037000600611D56005019800D5404229680A1D24
:100380002A600968220501D5087014E0220701D50A
:10039000088010E008600EE02868011D29600068F0
:1003A000210502D50199017005E02107019901D5C8
:1003B000018000E0016038467EE7FFB5002083B091
:1003C000009050680190916914460026976804983F
:1003D000884705460C990698084305D009E0A169AD
:1003E000761C049888470546216A284688470028D5
:1003F000F5D1681C03D00198C00704D017E0002095
:10040000C04307B0F0BD2068011D21600068009066
:100410000DE00198C00704D1009805700098401CB9
:100420000090A169761C7F1E049888470546002F1E
:100430001CDD681C1AD0069800280FD0E817C00EE3
:10044000401941118A0006994009511840012A1AA1
:100450000968012090400142DBD107E00C98002898
:10046000D7D1216A284688470028D2D0E16904986C
:1004700088470C98002807D1002E05DD0198C00799
:1004800002D1009800210170A068B84204DD0C98E8
:10049000002804D0002F02D00120C043B1E730462D
:1004A000AFE710B5202A04DB0146203A9140002036
:1004B00010BD914020239C1A0346E340194390400D
:1004C00010BD3A2800D23038202302469A43412AF0
:1004D00001D310463738884201D30020C04370470B
:1004E00002681378511801601846704710B5D16042
:1004F000044951610449116200211161114600F063
:1005000041F810BDE1040008750500084268002AA2
:1005100008D001680B78491C002B03D0521E06C07E
:10052000184670470121C160881E70474268002A42
:100530000BD0C3680168002B07D183688B4204D0BD
:10054000491E521C06C0002070470020C04370475F
:10055000064C0125064E05E0E36807CC2B430C3C16
:1005600098471034B442F7D3FFF7A6FDF4330008E0
:100570001434000810B50F21C0B2490200F09EF9F2
:1005800010BD0000F3B58DB000200A9001200B9043
:10059000002608460C300C46099062690121099832
:1005A0009047051E2ED0252D2DD0216A8847002882
:1005B00018D06269012109989047216A884700286C
:1005C000F7D1411E62690998904700E0761CA16945
:1005D0000D988847216A88470028F7D1E1690D986E
:1005E0008847DAE7A1690D9888470746A84201D1F4
:1005F000761CD2E7E1690D9888477F1C02D10A98E2
:10060000002877D049E1002762693D4639460998BC
:1006100090472A280CD16269012109989047012549
:1006200006E00A214F433F18303FEBD4102005432A
:100630006269012109989047014630390A2903D29D
:100640009B498F42DEDCECE7E90600D4994F6C2829
:100650000AD04C2810D0682824D06A282ED07428BC
:100660000CD07A280AD00DE06269012109989047E0
:100670006C2823D004211CE020200543626901215D
:1006800009989047A760656065284FD026DC5828F8
:1006900039D01ADC452849D012DC252834D041282D
:1006A000B0D143E06269012109989047682802D0DF
:1006B00008210D43E6E70120C002DEE70220DCE767
:1006C000462833D047282CD130E05B2870D06128F1
:1006D0002CD063286CD0642823D161E06F284FD0E0
:1006E00009DC662822D0672820D0692826D06E2809
:1006F00017D12EE0CDE070284DD073286FD075282B
:100700004ED078280DD154E0A1690D988847054650
:10071000252800D16CE7E1690D9888476D1C00D150
:100720006DE7BAE00A224CE00A2252E0012023469B
:100730006A46C0430D99C046C046A3E02846402102
:1007400008436060A807234601D5002239E0002253
:100750003FE0E80700D020E72068011D2160006825
:10076000290501D5067018E7290701D5068014E789
:10077000A90703D5F117066041600EE706600CE794
:100780002846402108436060A807234601D5082277
:1007900017E008221DE0484928460840606016E03E
:1007A0002846402108436060A8072346BCD5B9E726
:1007B00015E02846402108436060A80707D5234676
:1007C00010220120C0430D99C046C0465AE023467E
:1007D00010220120C0430D99FFF74AFD52E000218D
:1007E0000C910B460091632802D05B2807D043E0B0
:1007F000E80601D40120A060012000903CE062697D
:100800000121099890475E2805D101200C900146EE
:100810006269099890472169002906D10B4601AA0F
:100820008F00491CD3510829FADB002835D02169F3
:1008300000290ED1C117C90E09184A11930001AA47
:100840009A1849094901411A012013688840034355
:10085000136062690121099890475D28E5D10C98E1
:10086000002808D0002001AB81005A58401CD24318
:100870005A500828F8DB01AB01202246C0430D99ED
:10088000FFF79BFD00280ADA401C06D10B980028D0
:1008900003D00020C0430FB0F0BD0A98FBE7E90782
:1008A00002D10A99491C0A91361800200B9074E66F
:1008B000CCCCCC0CFFFFFF7FF1F7FFFF7F2801D9E5
:1008C000002207E0054B42089A5CC00700D11209DC
:1008D0001207120F01209040084070476432000850
:1008E000F8B5154C2078002824D0144E0C21B0788F
:1008F000374648431037C0194168E01DFF3000906B
:10090000FFF769FC0025002804D0B0780C2148438B
:10091000C01985720AA10098FFF75DFC002803D07A
:100920002179009801F0DCFCA1880098FFF748FCD1
:100930002570A580F8BD00005001002008000020AF
:100940002B4E4E4D493A31332C000000F8B5044689
:10095000012189021048FFF733FC0C2125460F4E78
:100960004D430220AF19B8723046103884700A2CFB
:100970000ED07059FFF74DFC82B2715964230848BC
:1009800001F0E5FA05483989083801F0A7FEF8BDFD
:1009900001F022FEF6E700005602002018000020B9
:1009A0005806002010B5044600F0B4FA2168401A39
:1009B0006168884201D3012010BD002010BD30B510
:1009C00085B001210925002400910291ED060194D2
:1009D0006946284600F0EEF904E0641CE4B2012008
:1009E00002F081FB0121284600F088FA002802D09D
:1009F000642CF2D310E0642C0ED2002404E0641CBA
:100A0000E4B2012002F06FFB0121284600F076FAE3
:100A1000002804D0642C05D3012005B030BD642C1F
:100A2000EDD3F9E70020F8E770B500240925ED06BD
:100A300004E0641CE4B2012002F055FB01212846C9
:100A400000F05CFA002801D0642CF2D3002404E00A
:100A5000641CE4B2012002F046FB0121284600F0AC
:100A60004DFA002801D1642CF2D3282002F03BFB80
:100A70000121284600F042FA002800D0012070BD74
:100A800070B5002004464006050EFFF7CDFF641C3C
:100A90002843E4B2082CF6D370BDFEB50D460646D9
:100AA00000F01FF8FFF78BFF002801D00120FEBDEA
:100AB00000246F46FFF7E4FF3855641CE4B2052CB0
:100AC000F8D36A46117850780B189078D27882184B
:100AD0009B186A461279934201D129703070002028
:100AE000FEBD10B586B001200090019003200924BE
:100AF000E40603906946204600F05CF900220121DB
:100B0000204600F000FA122000F042F901221146BE
:100B1000204600F0F8F91E2002F0E5FA06B010BDFC
:100B200010B5024800F085F810BD0000D80600207E
:100B300010B504460068054940181421FFF7D0FAA3
:100B4000800020640248E06310BD0000F8FFFDBF94
:100B50000000024030B5056C0124AC40C56B6C60F0
:100B6000046863604368102B036803D099600068D1
:100B7000C26030BD9A600068C16030BD10B50748E2
:100B80000268136810210B431360006801620A01B8
:100B90000349024801F05EF910BD0000580600202C
:100BA00056010020704730B5014620314B780022B5
:100BB000022B04D0042383630A70012030BD036834
:100BC0001C680E25AC431C6003681C686408640044
:100BD0001C600123056C1C46C06BAC4044604B702C
:100BE0000A70002030BD70B50024014620314A78DB
:100BF000022A03D004218163012416E002681368ED
:100C00000E25AB431360026813685B085B0013603A
:100C10000122056C1346AB40C56B6B604A70002225
:100C20000A70416B002900D08847204670BD806B58
:100C30007047F0B4C16B0D6801680C680422066C43
:100C40001346B3402B420DD063070BD50B689B06B0
:100C500002D40B6893430B60016C8A40C16B4A60FD
:100C6000C16A19E00227B74002462F400123203213
:100C7000002F15D0A70713D50C68A40604D40C6860
:100C80000A25AC430C605370036C02219940C36B7E
:100C9000596000211170816A002916D0F0BC084704
:100CA0000827B7402F4210D024070ED50C680E2518
:100CB000AC430C60046C1946A140C46B6160836353
:100CC000537000211170016BE6E7F0BC7047000023
:100CD00070B5040021D00221204620300546417025
:100CE000226811680E48A3680140606826691843AD
:100CF000E3683343184363691843A3691843E369FE
:100D00001843084310602046FFF712FF0021A1633B
:100D1000012068702970084670BD012070BD000078
:100D20000FC0FFFFF8B504468C462030017800253F
:100D3000012909D00126067041780027012905D034
:100D4000077002252846F8BD0220F8BD0221417037
:100D5000A763206801684908490001606146204690
:100D6000FFF7F8FEE06A00282068016802D00E2232
:100D7000114306E00A221143016020680168042241
:100D8000914301602068016831430160DAE70000A7
:100D900070B5044600F0BEF80546601C02D0044859
:100DA0000078241800F0B6F8401BA042FAD370BDBA
:100DB000A4000020F8B500238DE001249C40A44647
:100DC00022407DD04C68022C01D0122C0CD1DC08C2
:100DD000A40027183C6A5D07ED0E0F26AE40B44311
:100DE0000E69AE4026433E6205685E000324B440AF
:100DF0000F79A543BF07BF0FB7402F4307604D686A
:100E0000012D05D0022D03D0112D01D0122D0ED1B0
:100E10008568CF68A543B7402F438760476865461C
:100E2000AF430D79ED06ED0F9D403D434560C5682C
:100E3000A5438C68B4402C43C4604C68E40049D599
:100E4000284CA56901263543A561A4699D08344055
:100E50000094254CAD002F19BC689D072E0F0F255F
:100E6000B540AC430925ED06A84201D100250FE0AD
:100E70001E4DA84201D101250AE01D4DA84201D115
:100E8000022505E01B4DA84201D1032500E0052500
:100E9000B5402543BD60184C25684E689543F60360
:100EA00000D51543256065684E689543B60300D5A7
:100EB00015436560A5684E689543F60202D500E0CB
:100EC00008E01543A560E5684E689543B60200D575
:100ED0001543E5605B1C0A681446DC4000D06CE7F3
:100EE000F8BD00000010024000000140000400486E
:100EF00000080048000C0048000401400069084058
:100F000000D001207047002A01D0816170478162C2
:100F1000704700000148806870470000A40000206E
:100F2000024881680278891881607047A400002017
:100F300010B506480168102211430160002000F03E
:100F400007F800F027F8002010BD00000020024044
:100F500070B504460D4D7D202978C000FFF7C0F81C
:100F600001460B480068FFF7BBF800F0F3FD0028CE
:100F700009D1042C07D200222146401E00F02AF895
:100F800000206C6070BD012070BD0000A400002036
:100F9000B000002008B50848816901221143816131
:100FA000816911400091C26901040A43C261C069AC
:100FB0000840009008BD000000100240002805DB3A
:100FC000C106C90E01208840014908607047000031
:100FD00000E100E010B501F015FE10BD0A4B1A68E3
:100FE0009208920002431A600848036904221343DE
:100FF0000361012906D040BF20BF20BF0169914392
:101000000161704730BFF9E70070004000ED00E07B
:10101000F8B505460068354CC00352D5E069002696
:10102000C00007D4E16920040143E161E1690140A6
:10103000012600912E480168C90510D40168821567
:1010400011430160FFF766FF074604E0FFF762FF08
:10105000C01B642824D826480068C005F6D5206A3D
:1010600003273F02384020D06968394081421CD0B4
:10107000206A226AB843012109040A432262226AD3
:101080008A4322622062C0070FD0FFF743FF00901F
:1010900008E0FFF73FFF0099411A1648814201D945
:1010A0000320F8BD206A8007F3D5206A6968B84339
:1010B00008432062002E04D0E1690120000781432B
:1010C000E1612878C00705D0206BA96880088000FE
:1010D000084320632878800605D5206B10218843BB
:1010E000E968084320630020F8BD000000100240BA
:1010F0000070004088130000F8B50F46060059D074
:101100003A4D2868C007C00FB84209D22868400885
:101110004000384328602868C007C00FB84249D152
:101120003068334C81070CD5400704D5606807212F
:101130000902084360606068F0218843B168084391
:1011400060603078C00726D0706801280ED0216812
:1011500002280ED0890700292CDA616889088900E5
:1011600001436160FFF7D6FE00900DE0216889031E
:10117000F1E78901EFE7FFF7CDFE0099411A1D481D
:10118000814201D90320F8BD60680C2108407168D4
:1011900089008842EFD12868C007C00FB8420BD938
:1011A000286840084000384328602868C007C00FFE
:1011B000B84201D00120F8BD3078400706D56068FC
:1011C000072109028843F1680843606000F028F8AD
:1011D0006168094A0906090F515CC840074908605F
:1011E0000020FFF7B5FE0020F8BD000000200240FF
:1011F00000100240881300004C320008B0000020AC
:101200000448054900684968044A4905490F515C8A
:10121000C8407047B0000020001002405C32000857
:1012200010B514A30FCB88B06C460FC415A30FCB19
:101230000FC4184A51680C200B4603401648042B73
:1012400016D0082B14D18B021B0F6C46E45CD26ABB
:1012500004AB1207120F9A5CC90305D50023194687
:10126000FEF754FF214601E020460C4901F0B2FC94
:1012700008B010BD02030405060708090A0B0C0D8F
:101280000E0F10100102030405060708090A0B0CD3
:101290000D0E0F100010024000127A0000093D00F0
:1012A000FEB5040070D02078DC4DC0074AD06868D5
:1012B0000007800F012807D068680007800F022808
:1012C00009D16868C00306D5286880033AD56068EC
:1012D0000028E7D036E06168012914D0012080049D
:1012E000002901D0052914D02A68012109048A4364
:1012F0002A602968814329606068002816D0FFF7BA
:1013000009FE06460EE0286801210904084328600A
:10131000F2E7296801432960F5E7FFF7FBFD801B31
:1013200064286ED828688003F7D50BE0FFF7F2FD3C
:10133000064604E0FFF7EEFD801B6428F1D828681C
:101340008003F7D420780126800700283CDA6868FB
:101350000007800F07D068680007800F022809D1B6
:101360006868C00306D42868800716D5E06801289D
:101370000AD112E0E0680028286816D030432860BF
:10138000FFF7C8FD074605E043E1FFF7C3FDC01BBB
:101390000228C6D828688007F7D52868F82188432E
:1013A0002169C900084328600EE040084000286019
:1013B000FFF7B0FD074604E0FFF7ACFDC01B0228B5
:1013C000AFD828688007F7D42078000722D5E069D5
:1013D0000028686A0ED030436862FFF79BFD07461D
:1013E00004E0FFF797FDC01B02289AD8686A8007BF
:1013F000F7D50FE0400840006862FFF78BFD074615
:1014000005E09DE0FFF786FDC01B022889D8686AC9
:101410008007F7D4207804274007002860DA0020EE
:101420000190E869C00008D4E969B8060143E961A0
:10143000E969014001200091019079480168C905DE
:1014400011D40168821511430160FFF763FD00901C
:1014500005E0FFF75FFD0099401A642870D87048D6
:101460000068C005F5D5A06801280AD0002801D081
:10147000052810D0286A400840002862286AB8432E
:1014800001E0286A30432862A068002812D0FFF7E4
:1014900041FD00900AE0286A38432862F1E7FFF72F
:1014A00039FD0099411A5F48814249D8286A80076E
:1014B000F5D50DE0FFF72EFD009006E0FFF72AFDC1
:1014C0000099411A574881423AD8286A8007F5D4D2
:1014D0000198002804D0E969012000078143E961EF
:1014E0002078C00635D5606901280CD0401D686B96
:1014F00023D038436863686B400840006863FFF797
:1015000009FD064622E0686B38436863686B304328
:101510006863FFF7FFFC064604E0FFF7FBFC801B57
:1015200002285BD8686B8007F7D5686BF821884381
:10153000A169C900084368630BE0B8436863F4E736
:101540004CE0FFF7E7FC801B022847D8686B800758
:10155000F7D4206A00285ED069680907890F02293C
:1015600042D0012636060228286805D0B0432860FC
:10157000FFF7D0FC044633E0B0432860FFF7CAFC15
:10158000074604E0FFF7C6FCC01B022826D82868DF
:101590008001F7D4E86AE16A000900010843E862C3
:1015A000616AA06A084369683D22120491430843B6
:1015B0006860286830432860FFF7ACFC044604E00C
:1015C000FFF7A8FC001B022808D828688001F7D57F
:1015D00021E0FFF79FFC001B022801D90320FEBD7C
:1015E00028688001F5D416E00128F8D06868E96A17
:1015F00001221204636A02409A420AD10907E26A90
:10160000090F914205D10F2189040840A16A88423F
:1016100001D00120FEBD0020FEBD000000100240F0
:10162000007000408813000030B587B00446FFF713
:101630007FFC1B490120087000226946204600F00B
:1016400071F8002205A9204600F04AF86A461549BB
:101650001078087052780A32D3B24B706A4692788A
:101660008A70019D4D603B2A03D93C3A8A705B1C0D
:101670004B704A783B2A03D93C3A4A70401C0870A8
:101680000878172801D91838087000220549204623
:1016900000F0E8F8002801D0FFF784FA07B030BD69
:1016A0009C0000200801002010B5044600688168F5
:1016B000C9040CD5C068C00509D52046FFF7B4FFA2
:1016C0002168C86880221040FF388238C860012035
:1016D0000249400448610120607710BD00040140C8
:1016E00010B500680B464068C021C94301400002A4
:1016F000000ECC04D870E40E5C708C06A40E0904B5
:10170000490F9C701970002A0AD100F0C8FED870E9
:10171000587800F0C4FE5870987800F0C0FE9870B9
:10172000002010BD30B50B460168896A5960016818
:1017300009694904490C9960006804680F4821460A
:10174000014088024D04800E18706D0E49065D70D0
:10175000490E99706102490E40242140D970002A37
:101760000AD100F09CFE1870587800F098FE58706E
:10177000987800F094FE9870002030BD7F7F7F0045
:1017800070B5040003D0607F002802D006E001207D
:1017900070BD00202077204600F04CF802206077D2
:1017A0002168CA204862216853204862204600F020
:1017B00089FEFF250426002824D1206881681C4A60
:1017C00011408160216888686268636910432269FA
:1017D0001A43104388602168E06808612068016945
:1017E00022891204114301612068C168802291435B
:1017F000C16020688068800608D4204600F090F917
:10180000002803D0206845626677C0E72068016C35
:1018100001229204914301642068016CA269114382
:1018200001642068456201206077002070BD0000DF
:10183000BFFF8FFF10B50068084988420DD10848E6
:10184000016A0122D20311430162002211460220E3
:10185000FFF7C0FB0220FFF7B1FB10BD00280040DE
:1018600000100240F8B50446007F0B46012839D02D
:10187000012020770220607720681F46203700264D
:101880008068002A30D0400600D4DE7019789D7838
:1018900009040D435978DA780902120411430D4303
:1018A0003978D86909060D43054358699969054394
:1018B0005868084300902168CA2048622168532074
:1018C000486220688168FF2201329143816020686C
:1018D000C16880221140FF398239C160FFF71AFBCD
:1018E000074629E00220F8BD400600D4DE701878D3
:1018F00000F0DDFD0504587800F0D9FD0002054335
:10190000987800F0D4FD0543D87800040543387872
:1019100000F0CDFD00060543D869C5E7FFF7FAFAE8
:10192000C11B7D20C000814206D92168FF2048628A
:10193000032060772677F8BD2068C068C007EDD027
:101940002068C56121680098486420688168FF228A
:101950000132114381602068816812011143816066
:1019600008480268012149040A43026082680A4368
:1019700082602168FF20486201206077267700207E
:10198000F8BD000000040140F8B50446007F0B4696
:1019900001280FD00120207702206077002A0BD089
:1019A000D8789D78000405435878097800024903E7
:1019B000084317E00220F8BD5878C10603D5EF218F
:1019C00008400A305870D87800F071FD0504587846
:1019D00000F06DFD00020543987800F068FD0543B6
:1019E0001878400305432168CA20486221685320C3
:1019F0004862204600F066FD0026FF27002811D12E
:101A00000F480540206845602068C16880229143E6
:101A1000C1602068806880060BD4204600F080F802
:101A2000002806D0206847620420607726770120CE
:101A3000F8BD206847620120607726770020F8BD56
:101A40003FFFFF00F8B50446007F0D46012821D076
:101A50000120207702206077206800278068002A14
:101A60001AD0400600D4EF702878AE780004064300
:101A70006878E97800020904084306432168CA200F
:101A80004862216853204862204600F01BFD002870
:101A900034D114E00220F8BD400600D4EF7028785D
:101AA00000F005FD0604687800F001FD0002064321
:101AB000A87800F0FCFC0643E8780004DDE717484E
:101AC00006402068066020688168012292049143E4
:101AD00081602969E868084321688A681043886042
:101AE0002068C16880229143C160206880688006B8
:101AF0000CD4204600F014F8002807D02168FF20FD
:101B000048620420607727770120F8BD2168FF2014
:101B100048620120607727770020F8BD7F7F7F0033
:101B200070B504460068C168A0229143C160FFF708
:101B3000F1F97D260546F60006E0FFF7EBF9401BBC
:101B4000B04201D9032070BD2068C0688006F4D57A
:101B5000002070BD094910B5401E884201D90120FE
:101B600010BD074C60610321081F01F04BF80020F5
:101B7000A06107202061002010BD0000FFFFFF00D2
:101B800000E000E070B5416F0446856F0068826830
:101B900010261206002A14DA212912D18168802227
:101BA00091438160A06E002808D0FEF7FCFF00285A
:101BB00004D0A06EFFF73BF820281DD0204600F08F
:101BC000CCFE20688168490614D5222D12D1816887
:101BD000402291438160E06E002808D0FEF7E3FFC9
:101BE000002804D0E06EFFF722F8202804D0204619
:101BF00000F0A3FE002070BDE667032070BD7047B3
:101C0000F8B502680446D069116893684C4D0646E1
:101C10002E402025002E68D0DE07F60FFF27213743
:101C20000F40374375D0C70706D0CF0504D501272D
:101C30001762E26F3A43E267820708D5DA0706D0F7
:101C4000276802223A62E26F04273A43E2674207BA
:101C500008D5DA0706D0236804221A62E26F02234D
:101C60001A43E267020709D50A462A40324305D0E3
:101C7000236808221A62E36F1343E367020508D55D
:101C80004A0106D501222368D2021A62E26F2A4372
:101C9000E267E26F002A30D0800606D5880604D5B8
:101CA000216E002901D020468847E06F21688968AD
:101CB000490602D42821084224D0204600F03DFEE7
:101CC00020688168490619D5816840229143816066
:101CD000E06E002812D01B494163E06EFEF783FFDF
:101CE00000280AD0E06E416B06E0830611D58B0612
:101CF0000FD5216E12E020468847F8BD2046FFF739
:101D00007EFFF8BD2046FFF77AFF0020E067F8BDB0
:101D1000FFE7030605D50B0603D5616E0029EAD15E
:101D2000F5E74006F3D54806F1D511682046402373
:101D30009943116065670021616600F06FF9E6E77D
:101D40000F0800009928000810B5040003D0606F48
:101D5000002802D007E0012010BD002170200155AD
:101D6000204600F027F824206067206801684908B1
:101D700049000160204600F0F9FD0128ECD0606ABE
:101D8000002802D0204600F0F1FC206841680122C2
:101D9000D2029143416020688168082291438160AA
:101DA00020680168012211430160204600F044FDD3
:101DB00010BD000070B586B0064614216846FEF7D7
:101DC000FFF92049306888423AD11F498A690120C9
:101DD000800302438A618A69024005924A69C00011
:101DE00002434A6149690025014005910C20009099
:101DF0000220019003200390012004900920029505
:101E00006946C006FEF7D6FF1048114C21C4256074
:101E1000A560E56025618020656160600C48083C34
:101E2000FEF756FF002801D0FEF7BCFEF466002244
:101E300011461B206662FFF7CDF81B20FFF7BEF8A6
:101E400006B070BD00380140001002403000024072
:101E5000D8060020F8B50446806F20284DD100290F
:101E60000BD0002A09D00123A0681B03984206D199
:101E70002069002803D1C80701D00120F8BD2546FC
:101E80006035287C012838D00120287458206165ED
:101E900002530026E6672220A067E06E002819D0D2
:101EA00017498162E16E1748C862E16E16480863FF
:101EB000E06E13464663676D21683A462431E06E52
:101EC000FEF730FF002805D01020E0672E74202098
:101ED0006067D2E72E7420680168FF220132114347
:101EE0000160206881680122114381602068816857
:101EF0004022114381600020F8BD0220F8BD00009F
:101F0000F528000831290008AD28000810B5006840
:101F10000C49884214D10C4C2146A388C81DFF30BF
:101F20004A88002B00D01818A11DFEF730F9A088B0
:101F300061884018A080A01DFEF742F901202070A2
:101F400010BD000000380140500100207047FFB56F
:101F50000446406F83B017460D4620285CD1002D03
:101F60000AD0002F08D0A168C001814207D12069A2
:101F7000002804D1E80702D0012007B0F0BD2046B8
:101F800060300290007C012846D002980121017443
:101F90000020E06721206067FEF7BCFF2646403640
:101FA0000190378277820120A1680003814202D12B
:101FB0002069002802D02F46002511E000270FE0FD
:101FC00000228021204600F069FD002815D1002F55
:101FD00015D02168387808857F1C708A401E708271
:101FE000708A019B002806980090E9D100224021C8
:101FF000204600F053FD002808D00320BDE72888C4
:102000002168C005C00D0885AD1CE6E7202060678B
:10201000029900200874B0E70220AEE77047FEE79F
:1020200030B503460B480C4C0DE01A7850400022A6
:102030005B1CC50702D04008604000E04008521C0D
:10204000D2B2082AF5D30A46491EC9B2002AECD1F9
:1020500030BD0000FFFF000001A0000008B50848E7
:102060004169012211434161406910400022009002
:1020700011460A20FEF7AEFF0A20FEF79FFF08BDBB
:102080000010024070B586B014216846FEF798F83B
:102090001F484269012189050A43426142690A4099
:1020A0000592426949110A43426142690A40059218
:1020B000426949000A434261406909260840F60620
:1020C0000590002201213046FEF71DFF0324002564
:1020D000009469460F4802950194FEF76BFE0121BA
:1020E000009101910295039569463046FEF762FE24
:1020F00009486A4631C269463046FEF75BFE022057
:102100006A4631C269460548FEF754FE06B070BD06
:102110000010024000140048F2660000000400486D
:1021200070B527492748002412C07F2101608460D0
:10213000FF21C4603931046141600838FFF720FB9A
:10214000002801D0FEF72EFD1E4801223C38047005
:1021500044708470C460014604613C30FFF772FC37
:10216000002801D0FEF71EFD1748012505704570B7
:102170008570C47001462A461248FFF705FC002806
:1021800001D0FEF70FFD0F480A2128380470417076
:1021900084704460C460046184610C49C46141611D
:1021A000014620310D70FF210131416201460122BB
:1021B0002830FFF757FB002801D0FEF7F3FC70BD75
:1021C00000280040300100209D0000200000808099
:1021D00010B50C480A4901604B21C901416000213A
:1021E0008160C16001618161C1610C220162426153
:1021F0004162FFF7A9FD002801D0FEF7D3FC10BD16
:102200000038014058060020012103480022417196
:10221000C27001710270704708000020F8B52E4EA0
:10222000002701253446103C6079002808D0012899
:102230000ED002281BD00328F6D1FEF751FB40E058
:1022400000F08AFAFEF74CFB6420FEF7A1FD38E0AF
:10225000E0782179884205D00C2102464A43911941
:10226000C97A6170FEF772FB02206071DCE7FEF74D
:1022700037FBE0780C2141438919897A002913D072
:1022800015480838FEF78EFB0028CDD02770E0787F
:102290000C21414389198D726178002913D0491EA0
:1022A000617020716571BFE7092805D00A2805D043
:1022B000401CE070401CF4E76771B5E7257003200F
:1022C00060710020F8BD092803D17D200001FEF7D0
:1022D0005FFDFFF799FFA7E7180000207047000097
:1022E000F3B5A3B00C46342106A8FDF769FF002022
:1022F000019002900390049006A8239900F008FF33
:10230000002871D0002006A901AD82008A5C2A5401
:10231000401C0D28F9DB6846017CC27B0802104393
:10232000324940BA08820B212846FFF779FE06465B
:10233000002705E02398C15D2DA000F027FC7F1C3D
:10234000A742F7DB2CA000F021FC0024295D28A087
:1023500000F01CFC641C0D2CF8DB2BA000F016FC1C
:102360003C2113A8FDF72CFF13AA2EA12398FDF7FB
:1023700061FF13A92CA000F009FC1C4C31A0218A9C
:1023800000F004FC314636A000F000FC68460779F6
:102390002770681CFDF744FF00BA010A6846007AFE
:1023A0000902014368466160817A427A080210435B
:1023B00040BA2081208AB04206D030A000F0E6FB6F
:1023C000208900F0A3F80EE0002F0CD0012F0AD1D5
:1023D0002DA000F0DBFB6068012801D0002802D1AD
:1023E000C820FEF7D5FC002025B0F0BDE00000209D
:1023F00030782578200000000AC9CFC3E6CAC7D4C8
:10240000B4B4AE0A000000000AC9CFC3E6CAC7D7F9
:10241000AABBBBCEAAD7D6BDDAB5C4CAFDD7E90AD6
:102420000000000025730000636832203D25730A18
:10243000C9CFC3E6CAC7B2F0B7D6B5C4D7D6B7FBC3
:10244000B4AE0A00526563436F6D636861722E43D8
:102450007263436865636B203D2025780A000000A5
:10246000D0A3D1E9C2EBD1E9D6A44372633136449B
:10247000617461203D2025780A000000D0A3D1E9D5
:10248000CAA7B0DC0A000000D0A3D1E9B3C9B9A63D
:102490002CBCCCD0F8BDE2CEF60A00007047010992
:1024A0000A2200075143000F4018C0B270470021B4
:1024B00002E00A38C0B2491C0A28FAD20907090EFC
:1024C0000843704770B504460068C168490613D4D4
:1024D0000021C943C160FEF71DFD7D260546F600BB
:1024E00006E0FEF717FD401BB04201D9032070BD86
:1024F0002068C0684006F4D5002070BD10B50248C1
:10250000FFF7D2F810BD00003001002030B5214C9B
:1025100091B0AB216170CD21A170EF21E1709821C4
:1025200021710A216171010AA171E071082120461F
:10253000FFF776FD000A207208212046FFF770FDA4
:10254000C5B26572242108A8FDF73AFE242108A827
:10255000FDF736FE207AE179A2790795049205917C
:102560000690A07863792279E1786D460FC563788B
:10257000227809A108A800F019FB08A8FDF749FE78
:1025800082B2642308A91248FFF7E1FC0120207001
:1025900011B030BDD500002041542B4E4D47533D66
:1025A00031302C253032782530327825303278257C
:1025B000303278253032782530327825303278251F
:1025C00030327825303278253032780D0A0000001C
:1025D000580600207047000030B53C4CAFB00A20D0
:1025E0002070AB206070CD20A070EF20E0709820AC
:1025F00020710020A071E07120726072344AA072D4
:1026000051680B0EE3720B0C23730B0A6373A173F7
:10261000E07320746074DC21A174E074207560752F
:102620001178A175E075207660765078A0761B2130
:102630002046FFF7F5FC000AE0761B212046FFF755
:10264000EFFCC5B2257750211BA8FDF7B9FD50213D
:102650001BA8FDF7B5FDE07EA17E627E1A9517925C
:1026600018911990607D237EE27DA17D13AD0FC589
:10267000607C237DE27CA17C0FAD0FC5607B237C59
:10268000E27BA17B0BAD0FC5607A237BE27AA17A56
:1026900007AD0FC56079237AE279A17903AD0FC543
:1026A000A0782279E1786B4607C3637822780949DC
:1026B0001BA800F07BFA1BA8FDF7ABFD82B26423D8
:1026C0001BA90548FFF743FC2FB030BDB800002020
:1026D00000000020A43200085806002070B50D4606
:1026E0000446FEF717FC21C470BD10B5FEF718FCB8
:1026F00010BD000010B594B030216846FDF760FDB4
:1027000000240F940A2000900D9401200C94129440
:102710000E94119403901394102107901094089430
:1027200004916846FEF7BCFD07200C900D940E94B2
:1027300000210F940CA8FEF7DFFC05481090C01193
:102740001190129410A8FEF763FC14B010BD0000A5
:10275000010001007047000003480A21C1700B21ED
:1027600001710121417170470800002010B5818C72
:10277000C90707D001684A6801235B049A43836A4A
:102780001A434A60818C890707D501684A6801238A
:102790001B049A43C36A1A434A60818C490707D5D0
:1027A00001684A6801239B049A43036B1A434A60F9
:1027B000818C090707D501684A680123DB039A4326
:1027C000436B1A434A60818CC90607D50268916839
:1027D00001231B039943836B19439160818C890604
:1027E00007D501688A6801235B039A43C36B1A43C8
:1027F0008A60818C490612D503685A68012109054F
:10280000046C8A4322435A60026C8A4207D10268F0
:10281000516803235B059943436C19435160818CD4
:10282000090607D501684A680123DB04806C9A43D6
:1028300002434A6010BD0000F8B500260446C66792
:10284000FEF768FB054620680068124F000709D5AF
:1028500001212B46002249052046009700F01EF971
:1028600000280DD12068006840070BD501212B46B8
:10287000002289052046009700F010F9002801D0B9
:102880000320F8BD20206067A06760342674002014
:10289000F8BD0000FFFFFF0110B5406A00220146AD
:1028A00040314A834A82FFF7AAF910BD70B5446AE5
:1028B000606FA56F2168896800260906002906DA7D
:1028C000212804D152200653204600F046F8206803
:1028D0008068400606D5222D04D15A200653204692
:1028E00000F02BF8E06F10210843E0672046FFF767
:1028F00086F970BD10B501468969406A202914D057
:1029000000225A210A5201680A68FF2301339A43C0
:102910000A6001688A68520852008A6001688A6801
:1029200040239A438A6020218167FFF7EFFA10BDA8
:1029300010B5406AFFF70AFB10BD01680A68FF2363
:1029400021339A430A6001688A68520852008A60FB
:102950002021816700210166704701680A68C02351
:102960009A430A60202141677047000070B5044611
:1029700080682169E2690843616900251143226882
:1029800008431168404B19400143116021684868B1
:10299000032212039043E26810434860A169206A51
:1029A0002268084391680B231B02994301439160FD
:1029B0003648006B8007800F06D0012815D002280A
:1029C00015D003280FD010200122E169D203304E28
:1029D00091422ED100280CD002280DD004281DD001
:1029E00008284AD120E00220EEE70420ECE7082086
:1029F000EAE7FEF705FC13E06168264A48088018FC
:102A0000FDF76EFB80B201461039B14235D820493E
:102A1000491C01400007400F084321E0FEF700FC7D
:102A2000616840004A08EAE7616801224808120428
:102A3000E5E7002806D0022807D0042813D008288C
:102A40001BD116E0FEF7DCFB0FE06168124A480874
:102A500011E0FDF745FB80B201461039B1420CD8B8
:102A60002168C8600AE0FEF7DBFB61684A081018BD
:102A7000EFE7616848088018EBE701250020206631
:102A80006066284670BD0000F369FFFF0010024039
:102A9000EFFF00000024F40000127A00FFB581B0BF
:102AA00005460F46044660350A9E38E0701C36D055
:102AB000FEF730FA0499401AB04221D8002E1FD0F8
:102AC0002068016849072AD5C069C043000526D49B
:102AD00001202168C002086220680168FF22A1323B
:102AE0009143016020688168490849008160202085
:102AF0006067A067E06700202874032005B0F0BD80
:102B000020680168FF22A13291430160206881683A
:102B100049084900816020206067A067EBE72068D2
:102B2000C1693846884305D0002103988142BDD051
:102B30000020E3E70121F8E770B5104D2868C1696E
:102B40000F4EC9430F4CC9060FD41021016228460D
:102B5000FFF718F82868C169008D0B4800684068C5
:102B6000301A60802846FFF7D1F90448FFF748F88B
:102B70003246A11D0148FFF76DF970BD58060020CF
:102B80000001000050010020D80600200FB410B54D
:102B900003A9044B044A029800F066F810BC08BC74
:102BA00004B01847FD300008B40000200FB410B581
:102BB00004A9074B02AA039800F056F8044602A99C
:102BC000002000F08BFA204610BC08BC04B0184767
:102BD000DD300008F8B5040C8BB2264682B25E43A5
:102BE0000D0C1046370C58433604801900217941EA
:102BF00016466E43370C36048019794126466E43DB
:102C00008919F8BD8307FF22DB0E9A408907090E58
:102C10009940002808DB830809489B001B181868A6
:102C200090430843186070470007000F0838830876
:102C300004489B001B18D86990430843D86170472B
:102C400000E400E000ED00E002E008C8121F08C147
:102C5000002AFAD170477047002001E001C1121F1D
:102C6000002AFBD170470000FFB591B00F46054622
:102C7000002606E025280AD0149A139990476D1C67
:102C8000761C28780028F5D1304615B0F0BD002418
:102C900000940121F34A029400E004436D1C2B7858
:102CA0000846203B98401042F7D128782A280ED0B9
:102CB000022128780246303A092A15D8009A0A23B8
:102CC0005A43303A80180C436D1C0090F1E701CF55
:102CD0000090002805DA0120400304430098404298
:102CE0000090022004436D1C28782E2815D1042062
:102CF000044368786D1C2A280AD101CF6D1C02900C
:102D00000BE002990A225143303940186D1C0290A1
:102D10002878014630390929F3D928786C2810D051
:102D200006DC4C281AD068280ED06A2817D104E097
:102D3000742813D07A2812D110E0012040050443F2
:102D40000CE00121090501E0032109050C43697824
:102D5000814203D10120000524186D1C6D1C2878C8
:102D600003906E281ED00CDC632831D004DC0028D0
:102D70008AD0582811D1B2E064287BD069280CD1C0
:102D800078E073282DD004DC6F2870D0702804D12F
:102D9000A7E075286CD078286BD0149A13999047C7
:102DA000761C62E06002400F022807D003280AD098
:102DB000042838680AD006603F1D56E03868F117CD
:102DC00006604160F8E738680680F5E70670F3E7CB
:102DD0003878694608740020487404A803900120DC
:102DE00003E0386803900020C0433F1D61070FD502
:102DF000002101E00199491C029A0191914213DAE4
:102E00008142F7DB019A0399895C0029F2D10BE03A
:102E1000002101E00199491C01918142FADB019AEC
:102E20000399895C0029F5D101990098139A401AF9
:102E300000902146149B00F03BF901998019461837
:102E400007E0039803990078491C0391149A139999
:102E500090470198401E0190401CF2D12146149BDE
:102E6000139A009800F014F986196D1C09E741E0E7
:102E700033E034E00A200021049005916002410F04
:102E8000022905D001CFC2179446032905D007E0D7
:102E9000FF1DFF08FF0003CF06E000B2C2179446F3
:102EA000042902D140B2C1178C46002261469445E4
:102EB00006DA0A460021404291418C462D2102E06B
:102EC000210504D52B216A461176012103E0E10793
:102ED00001D02021F7E7019154E00A200BE01020F7
:102EE00009E01020049000210420044308200591EB
:102EF000029003E008200021059104906002410F38
:102F0000022905D001CF00229446032906D006E00D
:102F1000FF1DFF08FF0003CF8C4603E080B20429A9
:102F200000D1C0B20021019121072BD5039970294E
:102F300006D0049A1021059B4A401A4305D00EE0A2
:102F400040216A461176012108E06146014306D01E
:102F500030216A4611760399517602210191049A33
:102F60000821059B4A401A430CD16146014301D117
:102F7000610707D530216A46117601210191029936
:102F8000491E02910399582904D037A103910FA932
:102F90000F910DE039A1F9E76146059B049AFDF711
:102FA000B5F8039B8C469B5C0F9A521E0F921370D0
:102FB00061460143F0D10F9807A9081A2030039009
:102FC000600704D5012000048443029801E0012039
:102FD00002900399884201DD401A00E00020411868
:102FE0000290019809180098401A0090E00306D456
:102FF0002146149B139A009800F05AF88619002075
:10300000049008E006A9085C149A13999047049864
:10301000401C761C049001998842F3DBE0030CD538
:103020002146149B139A009800F042F8861904E098
:10303000149A302013999047761C0299481E0290EA
:103040000029F5DC08E00F980F990078491C0F91D2
:10305000149A13999047761C0399481E03900029EF
:10306000F1DCFBE6092801003031323334353637E4
:1030700038396162636465660000000030313233C4
:103080003435363738394142434445460000000064
:10309000F8B5044600251E461746880404D405E00A
:1030A00039462020B0476D1C641EF9D52846F8BD6E
:1030B000FFB50446002581B01E46C80301D5302760
:1030C00000E02027880404D505E038460399B0477E
:1030D0006D1C641EF9D5284605B0F0BD0A68531C66
:1030E0000B601070704705E00021491C0906090EAD
:1030F000FBD0401E0028F7D1704700000349CA6981
:103100005206FCD501492031088170470038014042
:1031100070B50A4605462C211046FDF770F80028C8
:103120000CD0441C06E02A4605A12046FDF782F893
:10313000A41C2D1D20780028F5D1012070BD0000B1
:10314000253032780000000086B0FDF7E3FEFDF781
:10315000EFFEFFF7CFFAFEF795FFFEF77FFFFFF7D1
:1031600037F8FEF7DDFF6420FDF712FEFDF706FDE0
:10317000FFF74AF82AA0FFF709FDFDF7B2FCFFF7B9
:103180004DF80028FBD17D200001FDF701FE294804
:10319000FEF74AFA284E294D29492A48FDF77DFCB9
:1031A000FFF7DAFAFDF7B6FE044601E0FFF736F85E
:1031B000FDF7B0FE001BB042F8D928780028F5D002
:1031C0002048002404701E4804702C701E480168BA
:1031D000491C016014216846FCF7F2FF0D200090A5
:1031E00003270920694601970294C006FDF7E2FD16
:1031F00001210846FDF7F2FEFFF77CFA0C20009053
:10320000022001A991C10120049009206946C0064D
:10321000FDF7D0FDFEF736FFFEF7DAFFBCE7000052
:1032200073797374656D20696E6974206F6B210A00
:10323000000000003001002088130000080000207A
:103240000100002000000020040000200000000019
:103250000000000001020304060708090000000046
:1032600001020304DDDDDDDDDCBBBBDDDDDDDDDD3D
:10327000DDDDDDDD988888888888888877777777AE
:10328000778888888555555666666666666666667A
:103290006668888883333332222222222222222225
:1032A0002228888D41542B4E4D47533D32392C25D1
:1032B0003032782530327825303278253032782512
:1032C0003032782530327825303278253032782502
:1032D00030327825303278253032782530327825F2
:1032E00030327825303278253032782530327825E2
:1032F00030327825303278253032782530327825D2
:1033000030327825303278253032782530327825C1
:1033100030327825303278253032782530327825B1
:103320003032780D0A00000041542B434744434F8C
:103330004E543D312C224950222C2263746E62225D
:103340000D0A000041542B4E4E4D493D310D0A00EF
:1033500041542B4347534E3D310D0A0041542B43FA
:1033600046554E3D310D0A0041542B4347415454BC
:103370003D310D0A0000000041542B4E4344503DA6
:1033800034392E342E38352E3233322C353638330C
:103390000D0A000041542B43474154543F0D0A008D
:1033A00041542B4E52420D0A0000000041542B4E56
:1033B000434F4E4649473D4155544F434F4E4E456E
:1033C00043542C46414C53450D0A000041542B43B5
:1033D000494D490D0A0000002B43474154543A31EE
:1033E0000000000041542B4E4D47533D00000000AB
:1033F0004F4B00001434000800000020B80000000B
:10340000482C0008CC340008B8000020680A0000EE
:10341000582C000800000000000000000000000020
:10342000000000000000000000000000AC330008B5
:10343000F03300088813020378330008F0330008E3
:10344000D0070203A0330008F0330008102702035E
:103450005C330008F0330008881302046833000866
:10346000F03300088813020350330008F0330008DB
:10347000D0070203CC330008F0330008B80B020376
:1034800028330008F0330008D00702034433000853
:10349000F03300088813020394330008D83300087F
:1034A00088130214E4330008F0330008881302057F
:1034B0000100000000000000010000000400000006
:0C34C0000000000000127A000000000074
:04000005080000B13E
:00000001FF
